:100000000C9434000C9451000C9451000C94510049
:100010000C9451000C9451000C9451000C9451001C
:100020000C9451000C9451000C9451000C9451000C
:100030000C9451000C9451000C9451000C945100FC
:100040000C9451000C9451000C9451000C945100EC
:100050000C9451000C940E020C9451000C9451001D
:100060000C9451000C94510011241FBECFEFD8E026
:10007000DEBFCDBF11E0A0E0B1E0E2E0FAE002C0F7
:1000800005900D92AC31B107D9F711E0ACE1B1E0C8
:1000900001C01D92A232B107E1F70E9487020C94C1
:1000A000FF040C940000982F8091C00085FFFCCFC6
:1000B0009093C6000895982F8091C00085FFFCCFD3
:1000C000905D9093C6000895AF92BF92CF92DF9259
:1000D000EF92FF920F931F935B016C016115710505
:1000E0008105910541F0E12C81EEF82E85EF082F76
:1000F00085E0182F14C08091C00085FFFCCF80E3FD
:100100008093C6003EC0C801B7012AE030E040E05D
:1001100050E00E94DD04C901DA017C018D01C601B5
:10012000B501A80197010E94DD04211531054105A3
:10013000510549F321C08091C00085FFFCCFC60165
:10014000B501A80197010E94DD04CA01B9012AE0A6
:1001500030E040E050E00E94DD04605D6093C60046
:10016000C801B7012AE030E040E050E00E94DD0421
:10017000C901DA017C018D01E114F10401051105C9
:10018000D1F61F910F91FF90EF90DF90CF90BF902D
:10019000AF900895AF92BF92CF92DF92EF92FF920D
:1001A0000F931F937B018C0120E030E040E050E092
:1001B0000E94300388235CF48091C00085FFFCCF4F
:1001C0008DE28093C60017FB109517F91095C801B2
:1001D000B7010E949C035B016C01C801B70120E0DC
:1001E00030E04AE754E40E947A047B018C01C601A6
:1001F000B5010E94C80320E030E04AE754EC0E94B9
:100200007A049B01AC01C801B7010E94CC020E9494
:100210009C037B018C01C601B5010E946400E114BE
:10022000F1040105110509F47BC08AE0E816F10428
:1002300001051105B0F48091C00085FFFCCF8EE26E
:100240008093C6008091C00085FFFCCF80E380933F
:10025000C6008091C00085FFFCCF80E38093C6007C
:100260005BC084E6E816F1040105110598F480915D
:10027000C00085FFFCCF8EE28093C6008091C00055
:1002800085FFFCCF80E38093C60060E070E080E0F3
:1002900090E044C088EEE81683E0F80680E00807A6
:1002A00080E01807E8F58091C00085FFFCCF8EE262
:1002B0008093C600C801B70124E630E040E050E07A
:1002C0000E94DD04611571058105910561F4C80185
:1002D000B70124E630E040E050E00E94DD04C901AF
:1002E000DA017C018D01C801B7012AE030E040E06D
:1002F00050E00E94DD04611571058105910561F4EE
:10030000C801B7012AE030E040E050E00E94DD047F
:10031000C901DA017C018D01C801B7010E946400A6
:100320001F910F91FF90EF90DF90CF90BF90AF9013
:100330000895CF93DF93809120019091210184361D
:100340009105C8F3C8ECD0E060911C0170911D01CB
:1003500080E090E00E94C80327ED33EA48E052E4D1
:100360000E94CB020E949C0370931A0160931901B2
:1003700088EE93E0FE013197F1F70197D9F780916C
:100380001E0190911F014C97F9F6C8ECD0E06091E6
:100390001C0170911D0180E090E00E94C80327EDD0
:1003A00033EA48E052E40E94CB020E949C0370931F
:1003B0001A016093190188EE93E0FE013197F1F77D
:1003C0000197D9F780911E0190911F014C97F9F682
:1003D000C8ECD0E060911C0170911D0180E090E0BC
:1003E0000E94C80327ED33EA48E052E40E94CB02A2
:1003F0000E949C0370931A016093190188EE93E0A8
:10040000FE013197F1F70197D9F780911E01909184
:100410001F014C97F9F6DF91CF9108951F920F922B
:100420000FB60F9211242F933F934F935F936F93C7
:100430007F938F939F93AF93BF93EF93FF9380919D
:1004400078009091790090931D0180931C01809118
:100450002001909121010196909321018093200128
:1004600080912001909121018536910530F084E63C
:1004700090E0909321018093200160911C01709184
:100480001D012091190130911A01621B730B80E04C
:1004900090E00E94C80326EF38E24CE95FE30E9437
:1004A00034030E949C0370931F0160931E0180918E
:1004B0007A00806480937A00FF91EF91BF91AF91B1
:1004C0009F918F917F916F915F914F913F912F916C
:1004D0000F900FBE0F901F9018959C01DC010D909E
:1004E0000020E9F71197A81BB90B90E00AC0E20FB2
:1004F000F31F40818091C00085FFFCCF4093C60070
:100500009F5FE92FF0E0EA17FB0788F30895CF9388
:10051000DF931092C50083E38093C40088E1809349
:10052000C10086E08093C20080917C008860809347
:100530007C0080917C00806C80937C0080917A00AC
:10054000866080937A0080917A00886C80937A002C
:1005500078940E949901C8ECD0E080E091E00E947C
:100560006D0260911E0170911F0180E090E00E9479
:10057000C8030E94CA0083E191E00E946D0286E1F7
:1005800091E00E946D0288E893E1FE013197F1F756
:100590000197D9F7E2CF5058BB27AA270ED070C1D8
:1005A00061D130F066D120F031F49F3F11F41EF498
:1005B00056C10EF4E095E7FB4CC1E92F72D180F3F0
:1005C000BA17620773078407950718F071F49EF550
:1005D0008AC10EF4E0950B2EBA2FA02D0B01B901A4
:1005E00090010C01CA01A0011124FF27591B99F0A9
:1005F000593F50F4503E68F11A16F040A22F232FB5
:10060000342F4427585FF3CF469537952795A79504
:10061000F0405395C9F77EF41F16BA0B620B730BAB
:10062000840BBAF09150A1F0FF0FBB1F661F771F1C
:10063000881FC2F70EC0BA0F621F731F841F48F4D1
:10064000879577956795B795F7959E3F08F0B3CF57
:100650009395880F08F09927EE0F97958795089541
:10066000D4D008F481E008950CD00AC102D140F042
:10067000F9D030F021F45F3F19F0EBC0511134C1D3
:10068000EEC00FD198F39923C9F35523B1F3951B0D
:10069000550BBB27AA2762177307840738F09F5FA3
:1006A0005F4F220F331F441FAA1FA9F333D00E2E12
:1006B0003AF0E0E830D091505040E695001CCAF77F
:1006C00029D0FE2F27D0660F771F881FBB1F261744
:1006D00037074807AB07B0E809F0BB0B802DBF0117
:1006E000FF2793585F4F2AF09E3F510568F0B1C035
:1006F000FBC05F3FECF3983EDCF3869577956795FA
:10070000B795F7959F5FC9F7880F911D96958795C7
:1007100097F90895E1E0660F771F881FBB1F6217E6
:1007200073078407BA0720F0621B730B840BBA0BA4
:10073000EE1F88F7E0950895BCD088F09F5790F0A1
:10074000B92F9927B751A0F0D1F0660F771F881FF6
:10075000991F1AF0BA95C9F712C0B13081F0C3D011
:10076000B1E00895C0C0672F782F8827B85F39F0AF
:10077000B93FCCF3869577956795B395D9F73EF455
:1007800090958095709561957F4F8F4F9F4F0895FD
:10079000E89409C097FB3EF490958095709561951B
:1007A0007F4F8F4F9F4F9923A9F0F92F96E9BB27D1
:1007B0009395F695879577956795B795F111F8CF4D
:1007C000FAF4BB0F11F460FF1BC06F5F7F4F8F4FB8
:1007D0009F4F16C0882311F096E911C0772321F0AE
:1007E0009EE8872F762F05C0662371F096E8862F46
:1007F00070E060E02AF09A95660F771F881FDAF79D
:10080000880F9695879597F90895990F0008550FC9
:10081000AA0BE0E8FEEF16161706E807F907C0F086
:1008200012161306E407F50798F0621B730B840B8E
:10083000950B39F40A2661F0232B242B252B21F468
:1008400008950A2609F4A140A6958FEF811D811D08
:10085000089597F99F6780E870E060E008959FEF42
:1008600080EC089500240A94161617061806090647
:10087000089500240A941216130614060506089516
:10088000092E0394000C11F4882352F0BB0F40F49E
:10089000BF2B11F460FF04C06F5F7F4F8F4F9F4FDE
:1008A000089557FD9058440F551F59F05F3F71F060
:1008B0004795880F97FB991F61F09F3F79F08795C7
:1008C0000895121613061406551FF2CF4695F1DF50
:1008D00008C0161617061806991FF1CF86957105E0
:1008E000610508940895E894BB2766277727CB0114
:1008F00097F908950BD0C4CFB5DF28F0BADF18F010
:10090000952309F0A6CFABCF1124EECFCADFA0F319
:10091000959FD1F3950F50E0551F629FF001729F94
:10092000BB27F00DB11D639FAA27F00DB11DAA1FB3
:10093000649F6627B00DA11D661F829F2227B00D00
:10094000A11D621F739FB00DA11D621F839FA00D8B
:10095000611D221F749F3327A00D611D231F849FDB
:10096000600D211D822F762F6A2F11249F57504032
:100970008AF0E1F088234AF0EE0FFF1FBB1F661FCD
:10098000771F881F91505040A9F79E3F510570F086
:1009900060CFAACF5F3FECF3983EDCF38695779566
:1009A0006795B795F795E7959F5FC1F7FE2B880F81
:1009B000911D9695879597F90895A1E21A2EAA1B85
:1009C000BB1BFD010DC0AA1FBB1FEE1FFF1FA217FF
:1009D000B307E407F50720F0A21BB30BE40BF50BFC
:1009E000661F771F881F991F1A9469F76095709585
:1009F000809590959B01AC01BD01CF010895F894BD
:020A0000FFCF26
:100A02004350552074656D7065726174757265200E
:0C0A12003D20002743000D0A00440100B5
:00000001FF
